:100000000C9434000C9451000C9451000C94510049
:100010000C9451000C9451000C9451000C9451001C
:100020000C9451000C9451000C9451000C9451000C
:100030000C9451000C9451000C9451000C945100FC
:100040000C9451000C9451000C9451000C945100EC
:100050000C9451000C9451000C9451000C945100DC
:100060000C9451000C94510011241FBECFEFD8E026
:10007000DEBFCDBF11E0A0E0B1E0E8E0F5E002C0F6
:1000800005900D92A432B107D9F721E0A4E2B1E0C6
:1000900001C01D92A634B207E1F70E9471020C94D0
:1000A00082020C940000EF92FF920F931F93CF9364
:1000B000DF9300D000D0CDB7DEB77E0125E0E20EA1
:1000C000F11C8E010F5F1F4F0E944B02D8018D93D0
:1000D0008D01AE15BF05C1F7E0E0F1E080E090E0F2
:1000E0002481BE016F5F7F4F620F711DAF019E01C2
:1000F0002F5F3F4F79010DC0D7011D917D01DA01BE
:100100002D91AD0130E0012E001C000812170306EE
:10011000B9F4E616F70681F7019785309105C0F42A
:10012000825E9E4FFC01808190E00F900F900F90B7
:100130000F90DF91CF911F910F91FF90EF90089555
:10014000019635968630910559F686E090E0EDCF20
:1001500080E090E0EACF8B31E9F40E9453008330D5
:10016000910591F038F48130910561F0029741F4E6
:100170000C94F9018430910549F0059749F00895F0
:100180000C94F3010C94F6010C94FA010C94FC010C
:100190000C9417028F3711F40C94BD018A3011F4BE
:1001A0000C94FB010C94FF009BB19F709BB980FDE8
:1001B0005C9A81FD5D9A82FD5E9A83FD5F9A5B9AEF
:1001C00085E08A95F1F700005B9887EC90E0019755
:1001D000F1F700C000000895CF93C82F5A98829578
:1001E0008F700E94D4008C2F8F700E94D40087ECF7
:1001F00090E00197F1F700C00000CF910895CF93F0
:10020000C82F80914501803121F4809144018130D3
:1002100099F15A9A8C2F85958595859585950E949B
:10022000D4008C2F8F700E94D40080914401909153
:10023000450120E1829FF0011124EC5DFE4FE90FA2
:10024000F11DC0839F3051F4811108C01092450107
:1002500081E08093440180EC0E94EC008091450194
:100260008F5F8093450187EC90E00197F1F700C024
:10027000000081E0CF91089580E0FCCFCF93DF9321
:10028000EC018991811104C081E0DF91CF91089543
:100290000E94FF00F6CF0E943E0181E80C94EC0022
:1002A00081E00E94EC008FE39FE10197F1F700C02D
:1002B000000008958AB18C6F8AB92FEF83EF91E027
:1002C000215080409040E1F700C0000083E00E9490
:1002D000D400AFE1BEE41197F1F700C0000083E065
:1002E0000E94D40087E592E00197F1F700C000007A
:1002F00083E00E94D400A7E5B2E01197F1F700C0B7
:10030000000082E00E94D40087E592E00197F1F7B7
:1003100000C0000089E20E94EC008CE00E94EC002A
:1003200086E00E94EC000E94500180E1E4E2F1E0EE
:10033000DF01282F1D922A95E9F7E4E3F1E0DF01C0
:100340001D928A95E9F7089591E0811101C090E02E
:10035000892F8295880F880F807C860F80680C9487
:10036000EC00880F862B8C600E94EC008FE39FE1ED
:100370000197F1F700C000000895CF936091450107
:1003800080914401962F982B911559F18115C9F050
:10039000611117C0815080934401CFE0C0934501A3
:1003A0006FE00E94A40180E20E94FF00809144015E
:1003B000815080934401C09345016FE0CF910C942C
:1003C000A4016150609345010E94A40180E20E9453
:1003D000FF006091450161506093450180914401A7
:1003E000EDCFCF91089581E40C94FF0085E40C9447
:1003F000FF0008950895089590914401809145016A
:10040000292F282B211591F081110AC0913041F438
:100410009FE090934501109244016FE00C94A40179
:100420006FEF680F60934501892FF8CF08956091B1
:10043000440190914501613019F49F3061F40895B1
:100440009F3049F4611107C01092450181E080930B
:1004500044010C94A4019F5F90934501862F692F5E
:10046000F8CF1092C50087E68093C40088E180939E
:10047000C10086E08093C20008959091C00095FF6E
:10048000FCCF8093C60008958091C00087FFFCCF09
:100490008091C600089580E197E22091C00027FD79
:1004A00006C00197D0F78091C60090E00895892B8F
:1004B000D1F78FEF9FEF0895CF93DF93EC018991F0
:1004C000811103C0DF91CF9108950E943D02F7CFC3
:1004D00088E00E943D0280E20E943D0288E00C9488
:1004E0003D020E945A010E94500160E081E00E949A
:1004F000B1010E9431020E9444028115E1F30E9481
:08050000AB00F9CFF894FFCF26
:100508005B337EFF035B41FFFF025B42FFFF025B41
:1005180044FFFF025B43FFFF02FFFFFFFF000203F0
:0405280004050100C5
:00000001FF
